:03000000020200F9
:1002000075A00075900051975197512C51975197B7
:100210005197748251695197900300518951977495
:10022000C35169519790030D5189615375A038C22C
:1002300080C281D2825197C282519775A00CC28030
:10024000C281D2825197C282519775A001C280C2E9
:1002500081D2825197C282519775A006C280C28115
:10026000D2825197C282519722F5A0C280C281D218
:10027000825197C282519722F5A0D280C281D28248
:100280005197C2825197519722C0E0E49360055183
:1002900078A380F7D0E022C000C001780179FFD9AF
:0802A000FED8FAD001D00022C3
:10030000454E54455220494E5055545300454533AF
:1003100033372D323032320052454144494E472066
:10032000494E5055545300434F4D505554494E4734
:1003300020524553554C54004E554D313A00204EF5
:10034000554D323A0020524553554C54203D200023
:100350002020007590F091FC7901759000D297D221
:1003600090D291D292D2937481516951979003188F
:100370005189519774C35169519790030D51895117
:100380009791FCE59075900075F01084E5F075F09C
:1003900010A4F530D296D290D291D292D29391FC01
:1003A000E59075900075F01084E5F02530F530D2B9
:1003B00095D290D291D292D29391FCE59075900013
:1003C00075F01084E5F075F010A4F531D294D29058
:1003D000D291D292D29391FCE59075900075F01075
:1003E00084E5F02531F53175900091D28560648502
:1003F0006266E53091D2748051695197900327511C
:100400008991FC74C051695197900338518974C522
:100410005169E560517874C65169E562517874C7D5
:100420005169519790033E518974CD5169E56451EA
:100430007874CE5169E566517891FCE5308531F0EC
:10044000A4F55085F05185606A85626CE55191D2C2
:10045000856070856272E55091D2748051695197C0
:100460009003455189748A51695197E570517874A8
:100470008B51695197E5725178748C51695197E5A8
:10048000605178748D51695197E562517851977434
:010490008EDD
:1004910051695197900350518974C0516951979096
:1004A1000338518974C55169E56A517874C6516937
:1004B100E56C517874C75169519790033E51897425
:1004C100CD5169E564517874CE5169E56651788002
:1004D100FE75F01084B40A0891F8F560E5F0800B20
:1004E10091F1F560E5F0B40A02800C91F1F5622218
:1004F1005005400024302224372222C000780AB15E
:1005010007D8FCD00022C00078C8B112D8FCD000B6
:1005110022C0007904B11DD9FCD00022C0007AF4B8
:05052100DAFED000220B
:00000001FF
