:03000000020120DA
:10012000755007755102755214755316E55075F0E8
:100130000A84C4F5903183E5F0C4F590318375905D
:10014000FF3183E55175F00A84C4F5903183E5F001
:10015000C4F59031837590FF3183E55275F00A84C0
:10016000F5903183E5F0C4F5903183E55375F00ADD
:1001700084F5903183E5F0C4F59031837590FF31BB
:100180008380A9C0007814318ED8FCD00022C00032
:1001900078203199D8FCD00022C00078F4D8FED065
:0201A00000223B
:00000001FF
