:03000000020A18D9
:0C0A1800787FE4F6D8FD75810D0208AE71
:10087C0053656E64696E6720410053656E64696EE2
:10088C006720420053656E64696E672043005365B0
:10089C006E64696E6720440053656E64696E6720F0
:0208AC00450005
:10080000E4F5A0C282C280C2817F38FE1209567F01
:10081000047E0012085C7F067E001209567F047E6B
:100820000012085C7F0C7E001209567F047E0012C5
:10083000085C7F017E001209567F047E0012085C6E
:070840007F807E00020956D3
:10084700120922C2877FCD7E0312085C12093AC2C1
:05085700877FCD7E0348
:10085C00E4FDFCC3ED9FEC9E5015E4FBFA0BBB00D2
:0F086C00010ABA01F8BB7EF50DBD00010C80E456
:01087B00225A
:040952007F837E0021
:10095600C280C281D2828FA07F0A7E0012085CC24A
:020966008222EB
:10097D00D280C281D2828FA07F0A7E0012085CC213
:02098D008222C4
:0808DC007BFF8B088A09890AE1
:1008E4008B0B8A0C890DAB0BAA0CA90D120909609C
:1008F40013050DE50D7002050C14F9120909FF1218
:05090400097D80E222E4
:10092200900000B2877F017E0012085CA3E582B4CA
:070932005AF1E583B405EC66
:01093900229B
:10093A00900000B2877F017E0012085CA3E582B4B2
:07094A00ACF1E583B402ECFF
:010951002283
:10098F0012093A120858120922C2877FB67E030253
:02099F00085CF2
:1009A10012084712085312093AC2877FB67E030222
:0209B100085CE0
:1009680012084712092212085612093AC2877FB69E
:050978007E0302085C93
:0F0A090012084712093AC2877FCA7E0302085CAF
:0C0A240012093AC2877FB67E0302085C0C
:1009E9001208001209527A08797C1208DC02098F70
:1009F9001208001209527A0879861208DC0209A144
:1009B3001208001209527BFF7A0879901208DE02AE
:0209C3000968C1
:1009C5001208001209527BFF7A08799A1208DE0292
:0209D5000A090D
:1009D7001208001209527BFF7A0879A41208DE0276
:0209E7000A24E0
:1008AE001208003090051209E9801B3091051209DB
:1008BE00F980133092051209B3800B30930512099B
:0E08CE00C580031209D77FC87E0012085C2285
:10090900BB010689828A83E0225002E722BBFE02EC
:09091900E32289828A83E493221F
:00000001FF
