:03000000020C1CD3
:0C0C1C00787FE4F6D8FD75813A020C6385
:100E1500566F6C742E3A2000206D560054656D7027
:040E25002E3A200041
:100DFF00C1000608000000000000090E0000002ED0
:050E0F000020DF43009C
:100D6900E4F5A0C282C280C2817F38FE120E291228
:100D79000DC57F067E00120E29120DC57F0C7E005F
:100D8900120E29120DC57F017E00120E29120DC502
:070D99007F807E00020E299D
:040DC5007F047E0029
:100DC900E4FDFCC3ED9FEC9E5015E4FBFA0BBB0060
:0F0DD900010ABA01F8BB7EF50DBD00010C80E4E4
:010DE80022E8
:100B76008E2B8F2C8B2D8A2E892F7C277D10120A87
:100B860012EF24301209DEAE2BAF2C7C277D10121B
:100B96000A127E037FE8CFCDCFCECCCE120A12EF5B
:100BA6002430AB2DAA2EA92F9000011209F0AE2BEE
:100BB600AF2C7C037DE8120A127E007F64CFCDCF76
:100BC600CECCCE120A12EF2430AB2DAA2EA92F902E
:100BD60000021209F0AE2BAF2C7C007D64120A12C3
:100BE6007E007F0ACFCDCFCECCCE120A12EF2430B4
:100BF600AB2DAA2EA92F9000031209F0AE2BAF2C15
:100C06007C007D0A120A12ED2430AB2DAA2EA92FE4
:060C16009000040209F049
:100E2900C280C281D2828FA07F0A7E00120DC9C200
:020E3900822213
:100E3B00D280C281D2828FA07F0A7E00120DC9C2DE
:020E4B00822201
:100DA0008B2B8A2C892DAB2BAA2CA92D1209C5605F
:100DB00013052DE52D7002052C14F91209C5FF123B
:050DC0000E3B80E22261
:0C0E4D0075C33F43B104D2AF43C3402241
:080D0D008F3A8E398D388C37C6
:100D1500C2007810120A75E48FC53000FDA917C20C
:100D250000AF3AAE39AD38AC377808120A758FC5C1
:100D35003000FDAB17C200E53AFF8FC53000FDADB1
:100D450017EB7B00FA7E00E97810C333CE33CED89B
:100D5500F92BFFEE3AFE7C00EF2DFFEC3EFE3395BE
:030D6500E0FDFCB2
:010D68002268
:03004B00020DE9BA
:100DE900C0E0C0D0E5C454F02480700585C517D291
:060DF90000D0D0D0E03272
:030E5900D294220E
:020CA800AB0798
:100CAA00E4F532F531753001F52FEF75F010A47EB9
:100CBA00005470FFEE3395E0FDFCEF4480FFED78C1
:100CCA0008120A888F368E358D348C33E5322536F4
:100CDA00FFE5313535FEE5303534FDE52F3533FC9A
:100CEA00C294120D0D8F2E8E2D8D2C8C2BD294E545
:100CFA002EF52EE52D5403F52DE4F52CF52BAE2D0E
:020D0A00AF2E0A
:010D0C0022C4
:100A9B00E4F521F522F523F524120E4D120E591211
:020AAB000D69D3
:100AAD00E4F52AF5297528F0752741FF120CA88E5B
:100ABD00258F26AC25AD26E412090B7B827A73793E
:100ACD004E78401208001209448E238F247F807EB9
:100ADD0000120E297BFF7A0E7915120DA07B007A7C
:100AED00007908AF24AE23120B767B007A007908CB
:100AFD00120DA07BFF7A0E791D120DA07F07120C2F
:100B0D00A88E258F26AC25AD26E412090BE4FBFA41
:100B1D0079B0783E1208008F2A8E298D288C27E413
:100B2D00FFFE7D207C41AB2AAA29A928A8271208FF
:100B3D00001209448E258F267B007A007908120B4E
:100B4D00767FC07E00120E297BFF7A0E7921120D61
:100B5D00A085090E850A0F850B10850C127B007A76
:060B6D0000790E120DA03C
:030B7300020AADC6
:10080000EC4D6011E8497017ED33EC3304600DE4F2
:10081000FCFFFEFD22E933E8330470F80209B01250
:10082000097B58046009E4CC248150062850090251
:1008300009BA2840030209B7C0E0EB4A7044B98006
:1008400006D0E0FB0209A6EF4E701CBD8008EBFF4E
:10085000EAFEE9FD80EBE98DF0A4FEE5F00208E98F
:10086000E9CDF9EAFEEBFFEF89F0A4FCE5F0CE89D3
:10087000F0A42EFFE435F0CD89F0A42DFEE435F090
:100880008067EF4E7005BD80D780C3EF8BF0A4ACBE
:10089000F0EE8BF0A42CFCE435F0F8EF8AF0A42CF9
:1008A000E5F038FCE433CB8DF0A42CFCE5F03BF80C
:1008B000EE8AF0A42CFCE5F038F8E433CF89F0A4FC
:1008C0002CFCE5F038CF3400CE89F0A42FFFE5F002
:1008D0003EFEE433C98DF0A42EFEE5F039CD8AF05A
:1008E000A42FFFE5F03EFEE43DFD33D0E0FB5007D2
:1008F0000BBB000F0209BAEC2CFCEF33FFEE33FE0A
:06090000ED33FD02099237
:1009060075F020800E75F010800575F0087D007E6C
:10091600007F003392D530D503120A67EC334010BE
:10092600EF33FFEE33FEED33FDEC33FCD5F0ED2275
:0E093600E5F0247EA2D513CC92E7CDCEFF22B1
:10094400EDD2E7CD33EC3392D524814006E4FFFEAB
:10095400FDFC22FCE4CFCECDCC24E0501174FF800A
:10096400EDC3CC13CCCD13CDCE13CECF13CF0470A7
:07097400F030D5DE020A6736
:10097B00E9D2E7C933E833F892D5EDD2E7CD33ECC2
:07098B0033FC5002B2D5223B
:10099200EC30E7100FBF000C0EBE00080DBD0004C6
:1009A2000BEB6014A2D5EB13FCED92E7FD2274FF72
:1009B200FCFDFEFF22E480F8A2D574FF13FC7D80CB
:0309C200E480EFDF
:100C2800020A9BE493A3F8E493A34003F68001F23D
:100C380008DFF48029E493A3F85407240CC8C333CD
:100C4800C4540F4420C8834004F456800146F6DF9C
:100C5800E4800B0102040810204080900DFFE47E20
:100C6800019360BCA3FF543F30E509541FFEE49391
:100C7800A360010ECF54C025E060A840B8E493A358
:100C8800FAE493A3F8E493A3C8C582C8CAC583CA83
:100C9800F0A3C8C582C8CAC583CADFE9DEE780BE3B
:010E140000DD
:1009C500BB010689828A83E0225002E722BBFE0230
:0909D500E32289828A83E4932263
:1009DE00BB010689828A83F0225002F722BBFE01F8
:0209EE00F322F2
:1009F000F8BB010DE58229F582E5833AF583E8F03D
:100A0000225006E92582C8F622BBFE05E92582C8E8
:020A1000F222D0
:100A1200BC000BBE0029EF8DF084FFADF022E4CCC8
:100A2200F875F008EF2FFFEE33FEEC33FCEE9DEC91
:100A3200984005FCEE9DFE0FD5F0E9E4CEFD22EDD7
:100A4200F8F5F0EE8420D21CFEADF075F008EF2F21
:100A5200FFED33FD4007985006D5F0F222C398FD12
:050A62000FD5F0EA22AF
:0E0A6700C3E49FFFE49EFEE49DFDE49CFC22A0
:100A7500E8600FECC313FCED13FDEE13FEEF13FF5F
:030A8500D8F12283
:100A8800E8600FEFC333FFEE33FEED33FDEC33FCCC
:030A9800D8F12270
:00000001FF
