:03000000020200F9
:1002000075A000759000518051805115518051802A
:10021000518002035075A038C280C281D2825180C1
:10022000C282518075A00CC280C281D2825180C22C
:1002300082518075A001C280C281D2825180C28267
:10024000518075A006C280C281D2825180C2825183
:100250008022F5A0C280C281D2825180C2825180A8
:1002600022F5A0D280C281D2825180C282518051B7
:100270008022C0E0E49360055161A380F7D0E022C2
:10028000C000C001780179FFD9FED8FAD001D000B2
:01029000224B
:0D030000524F4C4C494E472054494D45008A
:04000B001203DD32CD
:100350007482515251809003005172518075A8826D
:10036000758811758C00758AC071BA7B027C037127
:10037000EC71FD71C17B027C0371EC912B71C87B28
:10038000027C0371EC915971C17B027C0371EC9189
:100390002B71CF7B037C0471EC91877B017C027114
:1003A000EC91E371CF7B037C0471EC918771D67B78
:1003B000037C0471EC91B50204E7758D73758BEFC6
:1003C00022758D83758B1922758D96758B2A2275F2
:1003D0008DAC758B7422758DA2758B5022EA6002EC
:1003E000DA10BA00061CEB6002DB01221203F022D5
:1003F0007A5BC28D758C00758AC0D28C22758000A4
:10040000753001A830D287120415A830C2871204B3
:1004100015BC00E92212041BD8FB227902C28F719D
:10042000BAD90122D28E308FFD80F27580007530EE
:1004300001A830D287120443A830C287120443BCFB
:1004400000E922120449D8FB227902C28F71C1D976
:100450000122D28E308FFD80F2758000753001A8A8
:1004600030D287120471A830C287120471BC00E92F
:100470002212047971C8D8F9227902C28FD90122D7
:10048000D28E308FFD80F4758000753001A830D297
:0104900087E4
:1004910012049FA830C28712049FBC00E9221204F3
:1004A100A5D8FB227902C28F71CFD90122D28E3019
:1004B1008FFD80F2758000753001A830D28712045B
:1004C100CDA830C2871204CDBC00E9221204D3D8D2
:1004D100FB227902C28F71D6D90122D28E308FFDD3
:0604E10080F2BC00FD22C8
:00000001FF
