:030000000209F3FF
:0C09F300787FE4F6D8FD758120020A3AF6
:100800004C4344204F6B002A2A2A2A2A2A2A2A2AC1
:100810002A2A2A2A2A2A2A2A2A2A2A2A2A2A2A0D55
:100820000A002A2A2A2A2A2A3830353120546573A8
:1008300074732A2A2A2A2A2A2A2A0D0A0050726543
:100840007373203120666F72204C434420746573AB
:10085000740D0A005072657373203220666F722027
:100860004C454420746573740D0A004C4344207455
:1008700065737465640D0A004C4544207465737497
:1008800065640D0A00496E636F727265637420744B
:100890006573742E205061737320636F7272656389
:0B08A00074206E756D6265720D0A0019
:040C5600C101C10017
:100B3700E4F5A0C282C280C2817F38FE120C001287
:100B47000BBE7F067E00120C00120BBE7F0C7E00D0
:100B5700120C00120BBE7F017E00120C00120BBE9E
:070B67007F807E00020C00FC
:040BBE007F047E0032
:100BC200E4FDFCC3ED9FEC9E5015E4FBFA0BBB0069
:0F0BD200010ABA01F8BB7EF50DBD00010C80E4ED
:010BE10022F1
:1008AB008E088F098B0A8A0B890C7C277D10120905
:1008BB009EEF243012096AAE08AF097C277D101217
:1008CB00099E7E037FE8CFCDCFCECCCE12099EEF13
:1008DB002430AB0AAA0BA90C90000112097CAE08BC
:1008EB00AF097C037DE812099E7E007F64CFCDCFDC
:1008FB00CECCCE12099EEF2430AB0AAA0BA90C90DA
:10090B00000212097CAE08AF097C007D6412099EBF
:10091B007E007F0ACFCDCFCECCCE12099EEF2430F6
:10092B00AB0AAA0BA90C90000312097CAE08AF0905
:10093B007C007D0A12099EED2430AB0AAA0BA90C90
:06094B0090000402097C8B
:100C0000C280C281D2828FA07F0A7E00120BC2C234
:020C100082223E
:100C1200D280C281D2828FA07F0A7E00120BC2C212
:020C220082222C
:100B99008B0E8A0F8910AB0EAA0FA910120951608A
:100BA900130510E5107002050F14F9120951FF120F
:050BB9000C1280E22295
:100C2400758920758DFD759850D28ED2ACD2AF22C5
:080C4E008F993001FDC2012263
:060B6E007BFF7A08790705
:100B74008B0E8A0F8910AB0EAA0FA91012095160AF
:100B8400130510E5107002050F14F9120951FF1234
:050B94000C4E80E2227E
:090C4400E4FF3000FDC200AF998D
:010C4D002284
:03002300020C3498
:100C3400309905C299D20132309804C298D2003258
:100BE2007F807E00120C007BFF7A087900120B993D
:0E0BF2007FD07E07120BC27F017E00020C0036
:100AE200900000B2977F5E7E01120BC2A3E5826482
:100AF2000B458370EE900000B2967F647E00120B6D
:100B0200C2A3E5826405458370EE900000B2957F32
:100B1200C87E00120BC2A3E5826405458370EE9085
:100B22000000B2947F2C7E01120BC2A3E5826407FF
:040B3200458370EE99
:010B3600229C
:100A7F00E4F50D75900F120B37120C24120B6E7BD1
:100A8F00FF7A087922120B74120B6E7BFF7A0879AA
:100A9F003D120B747BFF7A087954120B74120C44BD
:100AAF008F0DE50D24CE600E047016120BE27BFF46
:100ABF007A08796B8011120AE27BFF7A08797880C5
:100ACF00067BFF7A087985120B747F647E00120B08
:030ADF00C280CA08
:1009FF00020A7FE493A3F8E493A34003F68001F285
:100A0F0008DFF48029E493A3F85407240CC8C333F8
:100A1F00C4540F4420C8834004F456800146F6DFC7
:100A2F00E4800B0102040810204080900C56E47EF5
:100A3F00019360BCA3FF543F30E509541FFEE493BC
:100A4F00A360010ECF54C025E060A840B8E493A383
:100A5F00FAE493A3F8E493A3C8C582C8CAC583CAAE
:100A6F00F0A3C8C582C8CAC583CADFE9DEE780BE66
:010C5A000099
:10095100BB010689828A83E0225002E722BBFE02A4
:09096100E32289828A83E49322D7
:10096A00BB010689828A83F0225002F722BBFE016C
:02097A00F32266
:10097C00F8BB010DE58229F582E5833AF583E8F0B1
:10098C00225006E92582C8F622BBFE05E92582C85D
:02099C00F22245
:10099E00BC000BBE0029EF8DF084FFADF022E4CC3D
:1009AE00F875F008EF2FFFEE33FEEC33FCEE9DEC06
:1009BE00984005FCEE9DFE0FD5F0E9E4CEFD22ED4C
:1009CE00F8F5F0EE8420D21CFEADF075F008EF2F96
:1009DE00FFED33FD4007985006D5F0F222C398FD87
:0509EE000FD5F0EA2224
:00000001FF
