:03000000020200F9
:1002000075A000759000518051805115518051802A
:10021000518002032875A038C280C281D2825180E9
:10022000C282518075A00CC280C281D2825180C22C
:1002300082518075A001C280C281D2825180C28267
:10024000518075A006C280C281D2825180C2825183
:100250008022F5A0C280C281D2825180C2825180A8
:1002600022F5A0D280C281D2825180C282518051B7
:100270008022C0E0E49360055161A380F7D0E022C2
:10028000C000C001780179FFD9FED8FAD001D000B2
:01029000224B
:100300004C6576656C2031004C6576656C2032005A
:100310004C6576656C2033004C6576656C20340046
:1003200056616C75653A20007570F37571B1E570B2
:10033000C4F57085709074845152518090030051BF
:1003400072518074C2515251809003205172518079
:10035000E570916874C95152E579516174CA51527E
:10036000E577516174CB5152E575516174CC5152AE
:10037000E57351619151E570C4F570857090748496
:10038000515251809003085172518074C2515251A0
:100390008090032051725180E570916874C9515268
:1003A000E579516174CA5152E577516174CB51526C
:1003B000E575516174CC5152E57351619151E5710C
:1003C000C4F571857190748451525180900310511D
:1003D00072518074C25152518090032051725180E9
:1003E000E571916874C95152E579516174CA5152ED
:1003F000E577516174CB5152E575516174CC51521E
:10040000E57351619151E571C4F571857190748402
:10041000515251809003185172518074C2515251FF
:100420008090032051725180E571916874C95152D6
:10043000E579516174CA5152E577516174CB5152DB
:10044000E575516174CC5152E573516191510204CB
:0E045000A37928C28DD90122758901758C36D9
:10045E00758A00D28C308DFD80EB75F0108475F0AE
:10046E000284F580E5F02430F573E58075F00284A2
:10047E00F580E5F02430F575E58075F00284F580A1
:10048E00E5F02430F57775F002E58084F580E5F02F
:05049E002430F5792275
:00000001FF
