:03000000020200F9
:1002000075A000759000518051805115518051802A
:10021000518002033E75A038C280C281D2825180D3
:10022000C282518075A00CC280C281D2825180C22C
:1002300082518075A001C280C281D2825180C28267
:10024000518075A006C280C281D2825180C2825183
:100250008022F5A0C280C281D2825180C2825180A8
:1002600022F5A0D280C281D2825180C282518051B7
:100270008022C0E0E49360055161A380F7D0E022C2
:10028000C000C001780179FFD9FED8FAD001D000B2
:01029000224B
:10030000546F67676C6520535731006966204C4510
:100310004420676C6F7773005265616374696F6E18
:100320002054696D6500206D696C6C697365636F3D
:100330006E647300436F756E74206973200074835C
:10034000515251809003005172518074C2515251E8
:100350008090030B51725180780271E7D290D29451
:100360007C00758C00758A00D28C308DFD0C20903D
:100370000280F5748151525180900318517251805E
:1003800074C05152518090033451725180EC9104E9
:1003900074C951525180E560516174CA5180515203
:1003A0005180E56251615180E58C910474CB5152CA
:1003B0005180E5605161518074CC51525180E562A9
:1003C00051615180E58A910474CD51525180E560AC
:1003D0005161518074CE51525180E562516151801A
:1003E000780571E70204311203EDD8FB227928C2A7
:1003F0008DD90122758901758C36758A00D28C30B1
:100400008DFD80EB75F01084B40A0B912DF560E53D
:10041000F0B40A0D800B9126F560E5F0B40A028075
:100420000C9126F562225005400024302224372208
:0104300022A9
:00000001FF
